:040000007FEF02F09C
:10020000006400000000D3508F0B6009D36E080E0D
:10021000C26E0F0EC16E070EB46E000EB56E000EEC
:10022000CD6E000E826E000E946E090E926E000E60
:10023000806E000E816E100E936E000E1D6E000E0D
:10024000196E000E136E000E1A6E000E146E21C091
:100250001EF022C01FF023C020F0000E086E000E1A
:10026000076E010E096E010E0A6E010E0B6E5CEC3C
:1002700002F0010E156E000E166E010E1B6E000EC2
:10028000176E010E1C6E000E186E80B610D0140E84
:10029000126E7A0EE82EFED7122EFCD780B607D04B
:1002A0001E281E6E0A0E1E6402D00A0E1E6E020E5C
:1002B0001E18D8A40BD0010E1A6E1B50D8A402D061
:1002C000010E01D0000E1B6E030E1E6E80A60BD019
:1002D000140E126E7A0EE82EFED7122EFCD780A6D0
:1002E00002D0000E1E6E81B810D0140E126E7A0E5F
:1002F000E82EFED7122EFCD781B807D01F281F6E1C
:100300000A0E1F6402D00A0E1F6E1F04D8A40CD060
:10031000010E1A6E020E1D6E020E1918D8A402D01C
:10032000000E1D6E020E1F6E81A80BD0140E126EF1
:100330007A0EE82EFED7122EFCD781A802D0000E2E
:100340001F6E80B010D0140E126E7A0EE82EFED7FB
:10035000122EFCD780B007D02028206E0A0E206411
:1003600002D00A0E206E020E2018D8A40BD0010E67
:100370001A6E1C50D8A402D0010E01D0000E1C6EC3
:10038000030E206E80A00BD0140E126E7A0EE82E93
:10039000FED7122EFCD780A002D0000E206E1A04C9
:1003A000D8A473D71DC007F0086A010E096E1BC0E0
:1003B0000AF01CC00BF05CEC02F01DC019F00D0E31
:1003C000126EFC0EE82EFED7122EFCD7000E1A6E0F
:1003D0005CD703A002D08B8201D08B9204A002D004
:1003E000898A01D0899A03A002D08B8401D08B9492
:1003F00004A002D08A8A01D08A9A01500210D8A49F
:1004000008D08B9C8B8689848B9889928B8A8B9061
:10041000120001040210D8A408D08B9C8B968994FA
:100420008B8889828B9A8B801200020E0118021031
:10043000D8A408D08B8C8B8689948B9889828B9AD0
:100440008B801200030E01180210D8A407D08B86EF
:1004500089848B8889828B9A8B8012000A0E0118FE
:100460000210D8A40CD08B82898A8B8C8B968994AD
:100470008A9A8B948B9889928B9A8B90120089928E
:100480008B86020E066E040E056EBA0EE82EFED79F
:10049000052EFCD7062EFAD700D089828B86020E55
:1004A000066E040E056EBA0EE82EFED7052EFCD79A
:1004B000062EFAD700D012000904D8A409D08B8EDA
:1004C0001A0E0C6EF80EE82EFED70C2EFCD700D0BC
:1004D00007C001F008C002F00AC003F00BC004F02E
:1004E000E9EC01F00904D8A412001A0E0C6EF80E03
:1004F000E82EFED70C2EFCD700D08B9E1200236A6C
:10050000226A216A000EF86E020EF76E000103EFF8
:0205100001F0F8
:020000040020DA
:08000000FFFFFFFFFFFFFFFF00
:020000040030CA
:0E000000FFC90D1FFF0381FF0FC00FE00F406F
:00000001FF
